:020000040000FA
:100000000C9465090C9455280C942A280C94FF270D
:100010000C94D4270C94A9270C947E270C94532776
:100020000C9428270C9496090C9496090C94960924
:100030000C9496090C9496090C9496090C949609C4
:100040000C9496090C9496090C9496090C949609B4
:100050000C9496090C9496090C9496090C94DE263F
:100060000C9496090C94A8260C947E260C94960960
:100070000C9496090C9496090C9496090C94960984
:100080000C9496090C9496090C9496090C94960974
:100090000C9496090C9496090C9496090C94960964
:1000A0000C9496090C9496090C9496090C94960954
:1000B0000C9496090C9496090C9496090C94960944
:1000C0000C9496090C9496090C9496090C94960934
:1000D0000C9496090C9496090C9496090C94960924
:1000E0000C94960908000000BE922449123EABAA67
:1000F000AA2ABECDCCCC4C3E00000080BEABAAAA42
:10010000AA3E00000000BF000000803F0000000089
:1001100000084178D3BB4387D1133D190E3CC3BDC2
:100120004282AD2B3E68EC8276BED98FE1A93E4C6F
:1001300080EFFFBE01C4FF7F3F00000000000C9471
:10014000270A0C943D0B0C942A170C94AF0B0C94BB
:1001500014260C94740B0C9473260C941E260C9489
:10016000EB090C9441260C940C260C94580B0C941F
:10017000451D0C9498090C94490A0C9455260C942E
:10018000E0160C94C0160C94700B0C94CD190C94C2
:10019000FD160C9457160C945E170C94180A0C94C8
:1001A0006D1D0C94BE190C94780B0C944B0B0C9495
:1001B000810A0C94081A0C945C0B0C94D2190C94C0
:1001C000620B0C944B260C94251A0C9428260C9444
:1001D0000B1A0C944F0B0C94520B0C94E6250C94B8
:1001E00069260C94CE0A0C94A30C0C945F260C94F4
:1001F000DC250C946C1D0C9482190C94660B0C94E9
:10020000E1250C94B6190C94820B0C94FA250C94ED
:10021000F0250C9468300C94B8160C9466190C9464
:10022000470B0C9499090C94430B0C946A0B0C9497
:1002300080280C947E0B0C9432260C947D0B0C942D
:1002400004260C943B0A4E414E494E495459494E9E
:1002500046CDCCCC3D0AD7233C17B7D13877CC2B31
:10026000329595E6241FB14F0A000020410000C8D6
:100270004200401C4620BCBE4CCA1B0E5AAEC59D57
:1002800074FFD0FFE0FFCFFF64FFD1FF32380C06D0
:100290000201FF64FFD0FFFE0000220025002800BD
:1002A0002B002E003100340002010000050108017E
:1002B0000B01000020002300260029002C002F0045
:1002C00032000001000003010601090100000A0BD1
:1002D00002090C0D0E0807030401000000000000D5
:1002E000000000000000000000000000000000000E
:1002F00000000000000000001211100000000000CB
:1003000000000000000000000000000000000000ED
:10031000000000002100240027002A002D003000EA
:10032000330001010000040107010A01010210204D
:10033000200808102040102040800201020108041B
:1003400002010102040810204080804020100804AF
:100350000201800402018040201008040201080408
:10036000020101020408102040800102040810204C
:100370004080050505050705080808080202020275
:100380000A0A080804040404010101010101010131
:100390000303030303030303040707070C0C0C0CFC
:1003A0000C0C0C0C020202020606060606060606E5
:1003B0000B0B0B0B0B0B0B0BFF7B311B0F07030105
:1003C000FFDE8CD8F0E0C0800103070F1B317BFFFC
:1003D00080C0E0F0D88CDEFF0000000000000000CC
:1003E0000000000000000000000FFFFFFFFFFFFF04
:1003F000F0000000000000080000000000001000F5
:1004000000000000000800000000000010000000D4
:1004100000000008000000000000100000000000C4
:1004200000080000000000001000000000000008AC
:1004300000000000000010000000000000080000A4
:100440000000000010000000000000080000000094
:100450000000100000000000000800000000000084
:100460001000000000000008000000000000100064
:1004700000000000000FFFFFFFFFFFFFF000000083
:10048000000000000000000000000000000000006C
:100490000000000FFFFFF00000000000000000005F
:1004A00001FFFFFFFF8000000000000000001FFFB1
:1004B000FFFFFFF80000000000000001FFFFFFFF4A
:1004C000FFFF8000000000000007FFFF0000FFFFAB
:1004D000E00000000000003FFF80000001FFFC0082
:1004E0000000000000FFF8000000001FFF000000F7
:1004F000000003FFC00000000003FFC00000000078
:100500000FFE0000000000007FF0000000003FF040
:100510000000000000000FFC00000000FFC0000011
:100520000000000003FF00000003FF0000000000C7
:10053000000000FFC0000007FC00000000000000F9
:10054000003FE000001FF000000000000000000F6E
:10055000F800003FC0000000000000000003FC00A5
:10056000007F80000000000000000001FE0001FE8E
:10057000000000000000000000007F8003FC00007D
:1005800000000000000000003FC007F00000000075
:100590000000000000000FE00FE00000000000007D
:1005A0000000000007F01FC0000000000000000075
:1005B000000003F83F000000000000000000000001
:1005C00000FC7E0000000000000000000000007E33
:1005D000FC0000000000000000000000003F0000E0
:1005E000007C3C3E5E2B3D3F2F5B5D3B2C2A225C1A
:1005F0000001090600FF0400E901C620FFFF06FF15
:1006000005FF02002002142480800080053242A0F1
:10061000A001556550F850F8500156662078E03832
:10062000F0200244549020409002455540A040A044
:10063000F0051222808001263640808080804001B3
:100640002636804040404080032232C0C0023343FF
:1006500040E0400112228080033141E002112180FC
:1006600002445410204080023444E0A0A0E0022460
:100670003440C04040023444E02040E0023444E0D2
:100680004020E002344480A0E020023444E0C02056
:10069000E0023444E080E0E0023444E020408002A4
:1006A0003444E0E0A0E0023444E0E020E002132320
:1006B0008000800114248000808002233340804029
:1006C000023343E000E0022333804080022434C040
:1006D000400040024454F0B080F00244546090F076
:1006E00090024454E0F090F0023444608080600254
:1006F0004454E09090E0024454F0E080F00244540E
:10070000F080E080024454F080B0F002445490F055
:10071000909002142480808080023444E02020C025
:1007200002445490E09090023444808080E002546F
:100730006488D8A88802445490D0B0900244546091
:10074000909060024454E090E080025464F09090F5
:10075000E8024454F0F0A09002445470C030E0022B
:100760003444E0404040024454909090F00244549D
:100770009090906002546488A8A850023444A0402D
:1007800040A002445490F010F0024454F02040F095
:10079000012636C080808080C002445480402010F2
:1007A000012636C040404040C005324240A00141D1
:1007B00051F0052232804002334360A0E00234440D
:1007C00080C0A0C0022333C080C00234442060A097
:1007D00060023343E0A0C00234442040E0400134D2
:1007E00044E0E0206002344480C0A0A002142480D1
:1007F000008080012535400040408002344480A0C4
:10080000C0A002142480808080025363D0A8A80274
:100810003343C0A0A0023343E0A0E0013444C0A0B1
:10082000C08001344460A06020022333C080800275
:1008300033436040C002344440E04060023343A090
:10084000A0E0023343A0A04002536388A8500233C3
:1008500043A040A0013444A0E020E0023343C04064
:1008600060013646604080804060011626808080AE
:10087000808080013646C040202040C00542525052
:10088000A0024555F0909090F0020020023545A05E
:1008900000A0A0E0023646408000E0C0E0023646FC
:1008A00040A00060A0E0023545A00060A0E0023654
:1008B0004640200060A0E002364640A04060A0E034
:1008C000012434C080C0C002364640A000E0C0E031
:1008D000023545A000E0C0E0023646402000E0C0FE
:1008E000E0023444A000404002359540A000404062
:1008F0000225358040004040024555906090F090C0
:1009000002465660906090F0900246562040F0E01B
:1009100080F002536378B0F80284941F2E788F021F
:10092000364640A000E0A0E0023545A000E0A0E08F
:10093000023646804000E0A0E002364640A000A01B
:10094000A0E0023646402000A0A0E0013646A0000C
:10095000A0E020600245559060909060024555905F
:10096000009090F00200400200400200400200406F
:1009700002004002364640800060A0E0022535407B
:1009800080008080023646204000E0A0E00236462B
:10099000204000A0A0E002464650A000C0A0A00257
:1009A000465650A090D0B0900215258080008080DF
:1009B000013646E080E0E020E00641519001779763
:1009C0007C82BAA2BA827C02009002334360C0608B
:1009D000033242E0200200900177977C82BAB2AAEB
:1009E000827C064151F0043343E0A0E0023494409D
:1009F000E040E0043343C04060042333C040C005FE
:100A000022324080013494A0A0E0800165757CF41E
:100A100074141413113180020090042333C0404039
:100A2000043343E0A0E0023343C060C0017686C4D3
:100A30004850284E84017686C448502C448601765E
:100A400096C448D0284E840200400246564020609A
:100A500090F09002465620406090F090024656601A
:100A6000906090F09002465650A06090F090024541
:100A700055906090F09002465660006090F09002B1
:100A800084941F2E788F014555F080F02060024637
:100A9000564020F0E080F00246562040F0E080F022
:100AA0000246566090F0E080F00246569000F0E07A
:100AB00080F002263680408080808002263640808A
:100AC0004040404002364640A0404040400235454C
:100AD000A04040404002546470E8487002465650BE
:100AE000A00090D0B0024656402060909060024630
:100AF00056204060909060024656609060909060F2
:100B000002465650A06090906002455590609090CB
:100B100060023343A040A0016676043858687080B4
:100B20000246564020909090F00246562040909009
:100B300090F00246566090009090F002455590006B
:100B40009090F0024656204090F010F001465680FA
:100B5000E09090E080013545C0C0A0C080023646DC
:100B600040200060A0E002364640800060A0E00225
:100B7000364640A00060A0E002464650A00060A0BB
:100B8000E0023545A00060A0E002364640A040608B
:100B9000A0E002536378B0F8012434C080C0C002E2
:100BA0003646402000E0A0C0023646408000E0A06B
:100BB000C002364640A000E0A0C0023545A000E0DB
:100BC000A0C002253580400040400225354080000D
:100BD000808002354540A0004040023444A00040DF
:100BE0004002465660601070906002464650A00079
:100BF000C0A0A0023646402000E0A0E002364640F9
:100C00008000E0A0E002364640A000E0A0E00246FE
:100C10004650A000E0A0E0023545A000E0A0E002C0
:100C200035454000E0004001556508705070800275
:100C30003646402000A0A0E0023646408000A0A03A
:100C4000E002364640A000A0A0E0023545A000A08A
:100C5000A0E0013747408000A0E0206001354580DA
:100C6000C0A0C080013646A000A0E02060010507BA
:100C700000FF060115022720FFFF06FF06FF080000
:100C800050221656808080800080153353A0A0A08B
:100C900002555550F850F85002555570A070287004
:100CA00002465680902040901002455540A040A03A
:100CB00050251353808080122656408080808040CB
:100CC000122656804040404080123555A040E040FA
:100CD000A00255552020F820201133536040800495
:100CE0004151F0122252C0C00344541020408012DF
:100CF000365640A0A0A0A04012365640C04040400A
:100D0000E00246566090102040F0024656F0106017
:100D10001090600246562060A0F02020024656F057
:100D200080E01090600246566080E090906002463D
:100D300056F010202040400246566090609090602F
:100D4000024656609090701060122555C0C000C0D9
:100D5000C0013656606000604080123555204080EA
:100D60004020034353F000F012355580402040806E
:100D700012365640A0204000400246566090B0B067
:100D80008060024656609090F09090024656E09047
:100D9000E09090E002465660908080906002465657
:100DA000E090909090E0024656F080E08080F00263
:100DB0004656F080E0808080024656609080B09079
:100DC000700246569090F0909090123656E0404057
:100DD0004040E002465610101010906002465690B7
:100DE000A0C0C0A0900246568080808080F002465D
:100DF0005690F0F090909002465690D0D0B0B090BF
:100E0000024656609090909060024656E09090E0C6
:100E1000808001475760909090D06010024656E065
:100E20009090E0A09002465660904020906012366C
:100E300056E040404040400246569090909090606E
:100E4000024656909090906060024656909090F0C6
:100E5000F090024656909060609090123656A0A096
:100E6000A0404040024656F010204080F012365616
:100E7000E080808080E00344548040201012365689
:100E8000E020202020E016325240A0024151F0160E
:100E9000225280400244547090B0500246568080E6
:100EA000E09090E00234546080806002465610105A
:100EB0007090907002445460B0C06002465620505A
:100EC00040E0404001455570906080700246568079
:100ED00080E09090901236564000C04040E01137BC
:100EE000572000202020A0400246568080A0C0A0AD
:100EF00090123656C040404040E0024454A0F0906A
:100F000090024454E09090900244546090906001AC
:100F10004555E09090E0800145557090907010022A
:100F20004454E090808002445470C030E002465641
:100F30004040E0404030024454909090701234544D
:100F4000A0A0A0400244549090F0F002445490605D
:100F500060900145559090502040024454F020404C
:100F6000F01236562040C040402022165680808025
:100F70008080801236568040604040800642525049
:100F8000A0FFFFFFFFFFFFFFFFFFFFFFFFFFFFFFD0
:100F9000FFFFFFFFFFFFFFFFFFFFFFFFFFFFFFFF61
:100FA000FFFF080050221656800080808080014696
:100FB000562070A0A070200245553040E040B0029D
:100FC00055558870507088123656A0A040E04040B9
:100FD00022155580800080801137576080C0A06046
:100FE00020C0173151A00157577088A8C8A8887031
:100FF00005335360A060035353489048034252F0B6
:1010000010143151E00157577088E8C8C88870073C
:101010004151F015335340A0400256562020F8208D
:1010200020F8142454C04080C0142454C0C040C0D0
:101030001622524080014555909090E0800246561D
:1010400070D0D0505050142252C0C0112252408053
:1010500014345440C040E005335340A04003535380
:10106000904890014757808080903070100147571A
:10107000808080B0102030014757C0C040D0307011
:101080001012365640004080A040024656609090B4
:10109000F09090024656609090F090900246566014
:1010A0009090F09090024656609090F0909002469A
:1010B00056906090F09090024656606090F090904C
:1010C00002465670A0B0E0A0B00147576090808003
:1010D000906040024656F080E08080F0024656F074
:1010E00080E08080F0024656F080E08080F002468A
:1010F00056F080E08080F0123656E040404040E0FC
:10110000123656E040404040E0123656E040404043
:1011100040E0123656E040404040E0024656E05083
:10112000D05050E0024656B090D0B0B09002465633
:10113000609090909060024656609090909060020F
:1011400046566090909090600246566090909090C5
:1011500060024656906090909060024454906060A7
:101160009002465670B0B0D0D0E0024656909090B3
:1011700090906002465690909090906002465690F3
:101180009090909060024656900090909060123639
:1011900056A0A0A040404002465680E090E08080EB
:1011A0000246566090A09090A00246564020709053
:1011B000B05002465620407090B050024656205023
:1011C0007090B05002465650A07090B050024656F3
:1011D00050007090B05002465660607090B050025F
:1011E000445470B0A0701135556080806040024654
:1011F00056402060B0C060024656204060B0C060DB
:1012000002465640A060B0C060024656A00060B0E2
:10121000C0601236568040C04040E01236564080D2
:10122000C04040E012365640A0C04040E012365662
:10123000A000C04040E002465640306090906002FE
:10124000465650A0E0909090024656402060909004
:1012500060024656204060909060024656600060F2
:1012600090906002465650A06090906002465650A2
:1012700000609090600245556000F00060024454A8
:1012800070B0D0E0024656402090909070024656D2
:1012900020409090907002465660009090907002AE
:1012A00046565000909090700147572040909050C3
:1012B000204001465680E09090E080014757500062
:1012C0009090502040008028683011241FBECFEF3E
:1012D000D1E2DEBFCDBF00E00CBF27E0A6EBB3E05C
:1012E00001C01D92A33BB207E1F713E0A0E0B2E01A
:1012F000E8E9F4E700E00BBF02C007900D92A63BBF
:10130000B107D9F719E0C4E6D9E000E006C021979B
:101310000109802FFE010E941A35C336D10780E0F3
:101320000807A9F70E9482290C943A3A0C9400000D
:10133000089580E0089520915607309157072817A7
:10134000390799F19093570780935607009739F121
:1013500020916907FC01211129C03596E491E093A1
:101360006A070C96FC01849180936B0780916A0751
:10137000082E000C990B20916B07821B910927FD09
:10138000939520916C07203441F0829FC001112475
:1013900026E0969587952A95E1F780936D0789E970
:1013A00099E090936807809367070895213031F49E
:1013B0003F96E491E0936A074096D4CF3D96E4913E
:1013C000E0936A070E96CECFDC01ED91FC9101907F
:1013D000F081E02D1994AF92BF92CF92DF92EF92FD
:1013E000FF920F931F93CF93DF936C017B018B01CF
:1013F000040F151FEB015E01AE18BF08C017D1071F
:1014000059F06991D601ED91FC910190F081E02DA8
:10141000C6011995892B79F7C501DF91CF911F91ED
:101420000F91FF90EF90DF90CF90BF90AF90089515
:10143000FC01538D448D252F30E0842F90E0821BDA
:10144000930B541710F0CF96089501970895FC015F
:10145000918D828D981761F0A28DAE0FBF2FB11DB7
:101460005D968C91928D9F5F9F73928F90E008950F
:101470008FEF9FEF0895FC01918D828D981731F0C9
:10148000828DE80FF11D858D90E008958FEF9FEF1D
:101490000895FC01918D228D892F90E0805C9F4FF3
:1014A000821B91098F739927089586E696E00E9422
:1014B000490A21E0892B09F420E0822F0895FC01DC
:1014C000A48DA80FB92FB11DA35ABF4F2C91848DA5
:1014D00090E001968F739927848FA689B7892C9302
:1014E000A089B1898C91837080648C93938D848D55
:1014F000981306C00288F389E02D80818F7D808358
:101500000895EF92FF920F931F93CF93DF93EC0117
:1015100081E0888F9B8D8C8D98131AC0E889F9899A
:10152000808185FF15C09FB7F894EE89FF8960839D
:10153000E889F98980818370806480839FBF81E01E
:1015400090E0DF91CF911F910F91FF90EF90089560
:10155000F62E0B8D10E00F5F1F4F0F731127E02E3B
:101560008C8D8E110CC00FB607FCFACFE889F98973
:10157000808185FFF5CFCE010E945F0AF1CFEB8D10
:10158000EC0FFD2FF11DE35AFF4FF0829FB7F89447
:101590000B8FEA89FB8980818062CFCFCF93DF9365
:1015A000EC01888D8823B9F0AA89BB89E889F9897B
:1015B0008C9185FD03C0808186FD0DC00FB607FCB0
:1015C000F7CF8C9185FFF2CF808185FFEDCFCE01E3
:1015D0000E945F0AE9CFDF91CF91089580E090E00B
:1015E000892B29F00E94550A81110E94000080E099
:1015F00090E0892B49F080E090E0892B29F00E944F
:10160000000081110E94000080E090E0892B49F0E9
:1016100080E090E0892B29F00E94000081110E9457
:10162000000080E090E0892B49F080E090E0892B79
:1016300029F00E94000081110C940000089581504F
:10164000823108F05AC0E82FF0E08827E55DF44FBA
:101650008F4F0C941A354B0B4F0B3D0B430B470B25
:101660007D0B520B580B5C0B620B660B6A0B700BFD
:10167000740B7D0B780B7E0B820B809180008F7733
:10168000809380000895809180008F7DF9CF8091B4
:101690008000877FF5CF84B58F7784BD089584B5AA
:1016A0008F7DFBCF8091B0008F778093B00008953D
:1016B0008091B0008F7DF9CF809190008F778093DB
:1016C00090000895809190008F7DF9CF80919000D7
:1016D000877FF5CF8091A0008F778093A000089539
:1016E0008091A0008F7DF9CF8091A000877FF5CFFA
:1016F000809120018F7780932001089580912001AF
:101700008F7DF9CF80912001877FF5CFCF93DF9335
:10171000282F30E0F901E453FD4F8491F901E45D95
:10172000FC4FD491F901EE58FC4FC491CC23A1F0A9
:1017300081110E941F0BEC2FF0E0EE0FFF1FEE5403
:10174000FD4FA591B491EC91ED2381E090E009F477
:1017500080E0DF91CF91089580E090E0FACFCF93C1
:10176000DF938FE10E94860BEC0181E20E94860BE1
:10177000CC0FDD1F8C2B9D2B20913C0430913D0420
:10178000220F331F220F331F282B392B2D30310509
:1017900049F02430310531F02230310519F02B3079
:1017A0003105A1F440912402509125026091260256
:1017B000709127024F5F5F4F6F4F7F4F409324021E
:1017C0005093250260932602709327022E30310534
:1017D00049F0A901475051094230510518F0213014
:1017E0003105A1F440912402509125026091260216
:1017F00070912702415051096109710940932402F7
:101800005093250260932602709327024091240290
:10181000509125026091260270912702493651406D
:101820006105710544F01092240210922502109275
:1018300026021092270240912402509125026091C5
:1018400026027091270277FF0CC048E651E060E065
:1018500070E0409324025093250260932602709317
:10186000270290933D0480933C04DF91CF9108952B
:101870001F93CF93DF93282F30E0F901E453FD4FFE
:101880008491F901E45DFC4FD491F901EE58FC4FCD
:10189000C491CC23A9F0162F81110E941F0BEC2FAD
:1018A000F0E0EE0FFF1FE856FD4FA591B4918FB702
:1018B000F894EC91111108C0D095DE23DC938FBF12
:1018C000DF91CF911F910895DE2BF8CFCF93DF9357
:1018D00090E0FC01E45DFC4F24918E589C4FFC018C
:1018E00084918823D1F090E0880F991FFC01EE5E6F
:1018F000FC4FA591B491FC01E856FD4FC591D491E0
:1019000061110EC09FB7F8948C91E22FE0958E2361
:101910008C932881E223E8839FBFDF91CF910895C4
:101920008FB7F894EC91E22BEC938FBFF6CF2FB7E3
:10193000F8946091520470915304809154049091F2
:1019400055042FBF089508958FB7F89480914804E7
:101950008FBF089561E0FC0184810E94380C809162
:10196000470481111092470408958EBD00000DB404
:1019700007FEFDCF8EB508958FEF0C94B50C0F9335
:101980001F93CF93DF93EC010E94970C8B010E9471
:10199000BC0C8F3F69F00E94970C601B710B6C1799
:1019A0007D07A8F380E0DF91CF911F910F910895FB
:1019B00081E0F9CF8CBD9DBD0895CF93DF93EC01FD
:1019C00080914704811109C081E080934704809190
:1019D0000307909104070E94DA0C60E08C81DF918C
:1019E000CF910C94380C8F929F92AF92BF92FF923E
:1019F0000F931F93CF93DF93EC01F62E49015A0109
:101A00008E81882389F08F8198859C012F5F3F4FBD
:101A100038872F838230924018F40E94BC0CF3CF99
:101A2000CE010E94AA0C1E82CE010E94DD0C8CE227
:101A300091E00E94BF0C8F2D80640E94B50C08E1DC
:101A400010E0D501C401002E04C0B695A795979566
:101A500087950A94D2F70E94B50C08501109083FE7
:101A60008FEF180771F785E9FF2021F028E087E85C
:101A7000F2128FEF0E94B50C10E00E94BC0C8A8716
:101A800087FF04C01F3F11F01F5FF7CFDF91CF9199
:101A90001F910F91FF90BF90AF909F908F900895EE
:101AA000AF92BF92CF92DF92EF92FF920F931F936C
:101AB000CF93DF93EC016901C801820F931F81303E
:101AC000924050F58E81882379F088819981AA818E
:101AD000BB8184179507A607B70731F48F819885D6
:101AE000C816D90608F042C0488359836A837B83AD
:101AF0008B85833039F089E0440F551F661F771FAF
:101B00008A95D1F79A01AB0161E1CE010E94F30CF5
:101B1000882389F083E08D83CE010E94AA0C80E0A7
:101B2000DF91CF911F910F91FF90EF90DF90CF90B9
:101B3000BF90AF9008950E94970C5B010E94BC0C6F
:101B40008A878F3F69F40E94970C6A197B096D326E
:101B50007140A0F38FE08D83CE010E94AA0CDCCFF0
:101B60008E3F89F418861F8281E08E838F8198854D
:101B70008C159D0550F40E94BC0C8F8198850196B0
:101B800098878F83F3CF8DE0E6CF6701E00EF11EDB
:101B90000E94BC0CF60181936F01EE15FF05C1F7A1
:101BA0008F819885080F191F18870F8389858823CF
:101BB00019F001151240A0F08E81882389F08F81E1
:101BC00098859C012F5F3F4F38872F83823092404A
:101BD00018F40E94BC0CF3CFCE010E94AA0C1E8206
:101BE00081E09ECFEF92FF920F931F93CF93DF93ED
:101BF000EC01790182E1411551056105710599F00A
:101C00008B85833039F089E0440F551F661F771F9D
:101C10008A95D1F79A01AB0168E1CE010E94F30CDD
:101C2000882319F084E08D8330C08EEF0E94B50CBC
:101C300087018EEFF81AF80181918F010E94B50C8F
:101C40000E151F05C1F78FEF0E94B50C8FEF0E9494
:101C5000B50C0E94BC0C8A878F71853089F488E5A9
:101C600092E00E94BF0C8823A9F020E030E0A90197
:101C70006DE0CE010E94F30C882371F084E1D3CF94
:101C800081E18D83CE010E94AA0CCE010E94AA0C94
:101C900080E00AC085E1C7CF0E94BC0C8111EECF65
:101CA000CE010E94AA0C81E0DF91CF911F910F918C
:101CB000FF90EF900895CF93DF9380916504882380
:101CC000A9F1C0916304D091640440912A0250911B
:101CD0002B0260912C0270912D0226E634E0CE0199
:101CE0000E94F20D811104C080E0DF91CF91089530
:101CF0004091490450914A0460914B0470914C0406
:101D0000411551056105710579F026E634E0CE01F3
:101D10000E94F20D882341F31092490410924A0464
:101D200010924B0410924C041092650481E0DDCFB8
:101D30008F929F92AF92BF92EF92FF920F931F9359
:101D4000CF934B015C01C42F80912A0290912B020A
:101D5000A0912C02B0912D0288159905AA05BB050A
:101D600049F10E945B0E81110BC080E0CF911F9161
:101D70000F91FF90EF90BF90AF909F908F9008953C
:101D800086E6E82E84E0F82E00E012E030E020E065
:101D9000B501A40180916304909164040E94500DE8
:101DA000882319F380922A0290922B02A0922C028F
:101DB000B0922D02409165044C2B4093650481E064
:101DC000D5CF8F929F92AF92BF92CF92DF92EF9238
:101DD000FF92CF9325E037E03093640420936304AF
:101DE000882309F46DC040E060E070E0CB010E9400
:101DF000980E81110BC080E0CF91FF90EF90DF90A3
:101E0000CF90BF90AF909F908F90089580912406BF
:101E10008F7789F78091300690913106A091320634
:101E2000B091330684369105A105B10520F3C09029
:101E30002C06D0902D06E0902E06F0902F06C114AF
:101E4000D104E104F104B9F240E0C701B6010E94F7
:101E5000980E882381F2809171049091720481150B
:101E6000924049F6A0917604AA2329F26091740465
:101E7000709175046115710509F4BDCF209173044B
:101E8000222309F4B8CFA09323072093150790E0ED
:101E900080E030E0E1E0F0E0C82FAF01082E02C0A2
:101EA000440F551F0A94E2F72417350769F041E003
:101EB000480F01968930910579F740931E079BCF13
:101EC000C12CD12C7601C0CF80931E0720917C04B9
:101ED00030917D0450E040E02115310541F420911E
:101EE0008A0430918B0440918C0450918D0420938E
:101EF00016073093170740931807509319074601A8
:101F00005701860E971EA11CB11C80922407909247
:101F10002507A0922607B0922707E0917704F09159
:101F20007804F0932A07E0932907B0E00E941B335E
:101F3000DC01CB01880D991DAA1DBB1D80932B07C9
:101F400090932C07A0932D07B0932E0725E0EE0F5A
:101F5000FF1F2A95E1F7E150FE4FEF2FFF27E6958F
:101F60008E0F9F1FA11DB11D80931F079093200707
:101F7000A0932107B09322078090790490907A046F
:101F8000B12CA12C8114910441F48090860490908E
:101F90008704A0908804B0908904C81AD90AEA0A74
:101FA000FB0AC80CD91CEA1CFB1C04C0F694E7947D
:101FB000D794C794CA95D2F7C0921A07D0921B073C
:101FC000E0921C07F0921D0785EFC8168FE0D80637
:101FD000E104F10428F48CE08093280781E00CCF21
:101FE00080E125EFC2162FEFD206E104F104A0F341
:101FF0008091920490919304A0919404B0919504DF
:1020000080932B0790932C07A0932D07B0932E0756
:1020100080E2E2CF4F925F926F927F928F929F9277
:10202000AF92BF92CF92DF92EF92FF920F931F93E6
:10203000CF93DF93EC01423051056105710590F4B7
:1020400080E0DF91CF911F910F91FF90EF90DF9093
:10205000CF90BF90AF909F908F907F906F905F9048
:102060004F90089589859A85AB85BC850196A11D01
:10207000B11D84179507A607B70710F3CB88DC8836
:10208000ED88FE888F89803109F042C0BB27A72FD9
:10209000962F852F480159012A013B01C80ED91EF0
:1020A000EA1EFB1E80912A0290912B02A0912C0225
:1020B000B0912D02C816D906EA06FB0699F58F895C
:1020C0008031C1F5B301A201552766277727440F58
:1020D000551F4A595B4FFA019182808280916504B5
:1020E0008160809365048A89823080F08D819E8131
:1020F000AF81B8858C0D9D1DAE1DBF1D8093490419
:1021000090934A04A0934B04B0934C0481E099CF80
:10211000DB01CA01E7E0B695A79597958795EA9503
:10212000D1F7B8CF40E0C701B6010E94980E8111E7
:10213000C6CF86CFB301A2014F77552766277727F1
:10214000440F551F440F551F4A595B4FFA018082B7
:102150009182A282B382C2CF8F929F92AF92BF929E
:10216000CF92DF92EF92FF920F931F93CF93DF9363
:10217000FC0181859285A385B4850196A11DB11DC1
:1021800084179507A607B70770F480E0DF91CF9119
:102190001F910F91FF90EF90DF90CF90BF90AF9085
:1021A0009F908F90089583889488A588B6888789A2
:1021B000803189F5BB27A72F962F852FE9016A016A
:1021C0007B018F01BC01CD01680D791D8A1D9B1D0E
:1021D00080902A0290902B02A0902C02B0902D02A9
:1021E00086169706A806B90601F5F8018789803199
:1021F00011F5DD24EE24FF24F601EE0FFF1FEA594E
:10220000FB4F80819181B0E0A0E088839983AA830D
:10221000BB8381E0BBCFDB01CA01C7E0B695A795C0
:1022200097958795CA95D1F7C9CF40E00E94980E3F
:102230008111DBCFAACFE894C7F8DD24EE24FF2478
:10224000F601EE0FFF1FEE0FFF1FEA59FB4F8081D3
:102250009181A281B381BF70D8CF4F925F926F926C
:102260007F92AF92BF92CF92DF92EF92FF920F9345
:102270001F93CF93DF9300D01F92CDB7DEB78C01B1
:1022800049835A836B837C835901C12CD12C7601FD
:10229000412C82E0582E612C712C49815A816B812E
:1022A0007C819E012F5F3F4FC8010E94AC108823A4
:1022B00039F1F8018585A301920104C0220F331F73
:1022C000441F551F8A95D2F7DA01C901C80ED91EDD
:1022D000EA1EFB1E49815A816B817C81878980318E
:1022E00011F188EF9FEFAFEFBFE0481759076A077A
:1022F0007B0798F2F501C082D182E282F38281E00D
:102300000F900F900F900F90DF91CF911F910F9131
:10231000FF90EF90DF90CF90BF90AF907F906F9045
:102320005F904F90089588EF9FEFA0E0B0E0DDCF81
:10233000CF93DF93FC012581222321F080E0DF9100
:10234000CF910895EC0180912807803159F582E002
:102350008583178A108E118E128E80912907909195
:102360002A07B0E0A0E025E0880F991FAA1FBB1F35
:102370002A95D1F7838B948BA58BB68B81E197E05F
:102380009C8F8B8F81E08C831E821F82188619861A
:102390001A861B861C861D861E861F86188A198A29
:1023A0001A8ACDCF803251F683E0858340912B0786
:1023B00050912C0760912D0770912E07478B508FFD
:1023C000618F728F9F012D5E3F4F81E197E00E94E8
:1023D0002D118111D3CFB2CF8F929F92AF92BF9226
:1023E000CF92DF92EF92FF920F931F93CF93DF93E1
:1023F000EC018D8181110EC080E0DF91CF911F91A2
:102400000F91FF90EF90DF90CF90BF90AF909F9093
:102410008F9008950B891C892D893E890417150713
:102420002607370748F34A015B01823031F48A8678
:102430009B86AC86BD8681E0E0CF81149104A10427
:10244000B10449F41E821F82188619861A861B86DB
:102450001C861D86F0CF0A851B852C853D85EB8D5E
:10246000FC8D858590E00996B901A801415051097C
:1024700061097109082E04C07695679557954795AF
:102480000A94D2F775016401E1E0CE1AD108E1089F
:10249000F10804C0F694E794D794C7948A95D2F7CC
:1024A000C416D506E606F70620F0012B022B032BF7
:1024B00011F58F89988DA98DBA8D8E839F83A887FA
:1024C000B9878E010A5F1F4FC114D104E104F104E2
:1024D00009F4ADCF4E815F816885798598018B8D38
:1024E0009C8D0E94AC1091E0C91AD108E108F10856
:1024F0008111EACF81CFC41AD50AE60AF70AE1CFE3
:102500003F924F925F926F927F928F929F92AF9283
:10251000BF92CF92DF92EF92FF920F931F93CF93D0
:10252000DF93CDB7DEB72C970FB6F894DEBF0FBEA2
:10253000CDBF5C01DC015B968D909C905C971696FC
:102540004D905D906D907C901997411451046104F9
:10255000710409F468C0BFEF4B1A5B0A6B0A7B0A6F
:10256000312CF40181859285A385B4859C01AD0150
:102570002F5F3F4F4F4F5F4F29873A874B875C87CD
:10258000730162011D821E821F821886F4018185FB
:102590009285A385B4852D813E814F81588528176A
:1025A00039074A075B0708F056C089859A85AB85CD
:1025B000BC858C159D05AE05BF0550F482E0C82E84
:1025C000D12CE12CF12C92E0492E512C612C712C54
:1025D0009E012F5F3F4FB701A601C4010E94AC10BE
:1025E0008823C9F189819A81AB81BC81892B8A2B8F
:1025F0008B2B09F1260137019FEF491A590A690A05
:10260000790A2D813E814F8158852F5F3F4F4F4F73
:102610005F4F2D833E834F8358873FEFC31AD30A02
:10262000E30AF30AB3CFF4014080518062807380E3
:102630003324339496CFC414D504E604F70409F781
:102640000FEF1FEF2FEF3FE0B701A601C4010E947B
:102650000A10811119C080E02C960FB6F894DEBFE5
:102660000FBECDBFDF91CF911F910F91FF90EF90E3
:10267000DF90CF90BF90AF909F908F907F906F90A2
:102680005F904F903F900895F50146815781608596
:102690007185411551056105710539F09701860174
:1026A000C4010E940A108823B1F2D5011696CD927A
:1026B000DD92ED92FC921997332051F0D701C601BB
:1026C0000196A11DB11DF40180839183A283B38380
:1026D000F5018789908DA18DB28D892B8A2B8B2B4B
:1026E00039F4C78AD08EE18EF28E8481806884832B
:1026F00081E0B2CF2F923F924F925F926F927F9282
:102700008F929F92AF92BF92CF92DF92EF92FF9201
:102710000F931F93CF93DF93EC015B012A018D810F
:10272000811115C08FEF9FEFDF91CF911F910F9116
:10273000FF90EF90DF90CF90BF90AF909F908F90E1
:102740007F906F905F904F903F902F9008958C8175
:1027500080FFE8CF0B891C892D893E894A855B85DE
:102760006C857D85C201B0E0A0E068017901C41AE2
:10277000D50AE60AF70AC816D906EA06FB0618F4CF
:102780002801441A550A42011E0126E0220E311C7E
:102790008114910409F4B3C04A855B856C857D85FD
:1027A0006A0181E0D8228B8D9C8D8A019B01E9E032
:1027B0003695279517950795EA95D1F7ED81E23083
:1027C000E1F5FC01628D738D848D958D600F711F15
:1027D000821F931F612C22E0722E6C187D088614D4
:1027E000970408F434012C8126FD04C06114F2E042
:1027F0007F0671F400912A0210912B0220912C0285
:1028000030912D02061717072807390709F053C022
:1028100040E00E94980E882309F484CFC6018A59AB
:102820009B4FD5019C01260D371DFC012E173F073C
:1028300009F460C041914D93F9CFFC0174807A9402
:102840007022C114D10471F471100CC0452B462BB9
:10285000472B39F58F89988DA98DBA8D8E839F83EB
:10286000A887B987EB8DFC8D6E817F8188859985DE
:102870006250710981099109258504C0660F771F8F
:10288000881F991F2A95D2F70685178520893189D7
:10289000600F711F821F931F670D711D811D911D98
:1028A00099CF4E815F816885798591010E94AC1036
:1028B0008111D8CF37CF750183019601AB01BC01DF
:1028C00080916304909164040E94500D882309F460
:1028D00029CFA60CB71C8A859B85AC85BD85860D46
:1028E000971DA11DB11D8A879B87AC87BD87861860
:1028F00097084ECF281B390BA20EB31EECCFC20196
:1029000013CFCF93DF93EC018D81882389F18C81E4
:1029100087FF2AC06E857F858889998941E00E945A
:10292000980E882329F1EA8980E2E89FF0011124BA
:10293000EA59FB4F3097E1F08D81823040F48B896A
:102940009C89AD89BE89848F958FA68FB78F8F891B
:10295000988D938F828F8F89988DA98DBA8DB58B25
:10296000A48B8C818F778C83DF91CF910C945B0E3D
:1029700080E0DF91CF910895CF93DF93EC010E9427
:102980008114882311F01D8281E0DF91CF91089599
:102990002F923F924F925F926F927F928F929F926F
:1029A000AF92BF92CF92DF92EF92FF920F931F935D
:1029B000CF93DF9300D01F92CDB7DEB78C015B01C0
:1029C0001A01DC0115968C911597813009F0C8C069
:1029D00014968C9181FFC4C082FDAEC06101D80104
:1029E0001A964D915D916D917C911D97C114D10402
:1029F00009F429C15B968D919C915C97FC017480D0
:102A00002FEF270D2A013B0139E076946794579404
:102A100047943A95D1F7722E74207A01F1E0FF22A3
:102A2000711020C0E114F104E9F416964D915D9106
:102A30006D917C911997411551056105710509F05A
:102A400098C057968D919D910D90BC91A02D0097A7
:102A5000A105B10509F0AFC0C8010E94801288230A
:102A600009F47EC080E092E08E199F0946018C1522
:102A70009D0508F44C01D8015B964D915C915C97E3
:102A800016968D919D910D90BC91A02D0297A10954
:102A9000B109FA01258504C0880F991FAA1FBB1F21
:102AA0002A95D2F74685578560897189840F951FCD
:102AB000A61FB71F9C01AD01270D311D411D511DE2
:102AC00029013A01811432E0930609F07AC080911D
:102AD0002A0290912B02A0912C02B0912D02841514
:102AE0009505A605B70559F48FEF9FEFDC0180939C
:102AF0002A0290932B02A0932C02B0932D029501F1
:102B0000B301A20180916304909164040E94F20DCC
:102B1000882331F19EEFB91AC818D908F8018285C7
:102B20009385A485B585880D991DA11DB11D82874A
:102B30009387A487B58753CFF80143895489658962
:102B4000768982859385A485B585481759076A07D4
:102B50007B0709F443CFC8010E94EC1181113ECFDD
:102B600081E090E0D80113969C938E93129780E0B9
:102B700007C09E012F5F3F4F0E94AC10811102C021
:102B800090E077C089819A81AB81BC81F801238D67
:102B9000348DF901278948EF5FEF60E070E0203164
:102BA00021F048EF5FEF6FEF7FE084179507A607EE
:102BB000B70708F051CFF80186839783A087B187C4
:102BC00051CFE114F10491F5D8011A964D915D9120
:102BD0006D917C911D9753968D919D910D90BC9117
:102BE000A02D481759076A077B0700F10E945B0E6A
:102BF000882309F4B5CF40922A0250922B026092AA
:102C00002C0270922D02809165048160809365048E
:102C100097012A593B4FD501C901880D991DF9012A
:102C20008E179F0759F04D914193FACF41E0C301B0
:102C3000B2010E94980E8111EBCF92CF821B930BB1
:102C4000A80EB91E69CFF80183899489A589B68930
:102C500084179507A607B70738F48481438B548BF4
:102C6000658B768B80688483F801848183FD18C02E
:102C7000C1010F900F900F900F90DF91CF911F9196
:102C80000F91FF90EF90DF90CF90BF90AF909F900B
:102C90008F907F906F905F904F903F902F9008950E
:102CA000C8010E948114882309F45ACFE1CFCF9341
:102CB000DF931F92CDB7DEB7698341E050E0BE01DC
:102CC0006F5F7F4F0E94C8140F90DF91CF910895DE
:102CD000FC01DB0112968D919C9113979383828363
:102CE00086E792E09183808314968C911497848375
:102CF00015968C911597858316964D915D916D91E2
:102D00007C91199746835783608771871A964D91F6
:102D10005D916D917C911D9742875387648775877C
:102D20001E964D915D916D917C9151974687578785
:102D3000608B718B52968C915297828B53964D91EA
:102D40005D916D917C915697438B548B658B768BFF
:102D500057964D915D916D917C915A97478B508F0D
:102D6000618F728F5B968D919C91948F838F089564
:102D7000FC01818D928D009711F00C9481140895BF
:102D8000DC015996ED91FC913097B9F083899489D3
:102D9000A589B6894285538564857585841B950B05
:102DA000A60BB70B811520E89207A105B10538F0F5
:102DB0008FEF9FE7A0E0B0E0089590E080E00895F5
:102DC000CF93DF93EC01E98DFA8D309749F481E0E0
:102DD00090E09B838A8390E080E0DF91CF9108951B
:102DE00013821282898D9A8D0E94C814E98DFA8D02
:102DF00022813381232B59F7F0CFCF93DF931F929A
:102E0000CDB7DEB76983DC01ED91FC910280F381DF
:102E1000E02D41E050E0BE016F5F7F4F19950F90AC
:102E2000DF91CF910895CF93DF931F92CDB7DEB797
:102E300041E050E0BE016F5F7F4F0E947A1301971F
:102E400031F4898190E00F90DF91CF9108958FEF59
:102E50009FEFF9CFFC01818D928D009711F00C94BA
:102E600013178FEF9FEF08950F931F93CF93DF9367
:102E7000EC010E94970C688779878A879B87CE012F
:102E80000E942A1797FF15C00E94970C0885198584
:102E90002A853B85601B710B820B930B0C811D8176
:102EA0002E813F81601771078207930740F38FEFF0
:102EB0009FEFDF91CF911F910F9108950F931F9373
:102EC000CF93DF93EC01898D9A8D10E000E000979D
:102ED00099F00E9413178C010F3F100769F0898D3C
:102EE0009A8DFC0142855385648575854150510951
:102EF000610971090E94EC11C801DF91CF911F9106
:102F00000F910895CF93DF93EC01AE81BF819D8136
:102F1000969596959695862F8770E0E8F0E002C02A
:102F2000F595E7958A95E2F78A81481B499F402DE0
:102F30001124669566956695460F5527551FA40F73
:102F4000B51F8C91222329F0E82BEC93DF91CF91D0
:102F50000895E095E823F9CFFB014181DC01129649
:102F60002C911297421768F013962C9113972417FF
:102F700040F0608115962C91621718F424810C940E
:102F800082170895FC0180819281980F928321819C
:102F9000921760F494819F5F94839381890F8217C5
:102FA00010F08FEF820F838381E0089580E0089511
:102FB000FC01128280818150838314820895DB0199
:102FC000ED91FC9119940F931F93CF93DF931F9270
:102FD000CDB7DEB70091540710915507E0918307F4
:102FE000F091840782E0199530E020E04AE0B801D2
:102FF00082E597E00E94DF17182FE0918307F09198
:10300000840783E01995E0918307F091840780E0BD
:1030100019951123B9F160915407709155079E01DC
:103020002F5F3F4F46E482E597E00E94DF178981DA
:103030008093520760915407709155079E012F5F4E
:103040003F4F47E482E597E00E94DF178981809334
:103050005307609154077091550730E020E048E431
:1030600082E597E00E94DF1780935D076091540727
:103070007091550725E837E047E182E597E00E9427
:10308000DF1711E0812F0F90DF91CF911F910F91EA
:1030900008950F931F93CF93DF938C01CEE4D7E075
:1030A000EDA9FEA982E01995EDA9FEA981E0199587
:1030B00030E020E044E1B80182E597E00E94DF17AC
:1030C00025E837E047E1B80182E597E00E94DF1785
:1030D000EDA9FEA980E0DF91CF911F910F91199486
:1030E0000F931F93CF93E0916007F09161073097A2
:1030F00019F082E597E01995009154071091550752
:10310000E0918307F091840782E01995E0918307AD
:10311000F091840781E0199530E020E045E1B801A5
:1031200082E597E00E94DF17C82F882341F025E849
:1031300037E047E1B80182E597E00E94DF17E091B0
:103140008307F091840780E019958C2FCF911F9110
:103150000F9108950B96FC01849108950A96FC0145
:1031600084910895FC01849108950E94B2188823E7
:1031700021F0823011F083E0089586E00895FC018B
:10318000E60FF11D849190E0982F88273196E49105
:103190008E0F911D089568E00C94BF1866E00C94A2
:1031A000BF182EE93FE0009709F40895F90131971F
:1031B000F1F70197F8CF30914604409145045091C2
:1031C000440460914304A0914104B0914204E09111
:1031D0003F04F09140049FB790933E04F8949C9173
:1031E000392B9C91492398E087FF0EC03C93880FB0
:1031F0002081262320832081252B20839150A1F735
:1032000080913E048FBF08954C93F1CFCF93C62F8A
:1032100081111BC088EF0E94DB188C2F807F0E94D9
:10322000DB188C2F8295807F0E94DB1888E290E06B
:10323000FC013197F1F7FC013197F1F7FC0131976F
:10324000F1F70197F1F7CF910895813031F78AEFC7
:10325000E2CF90E0FC01EE58FC4FE491F0E0EE0F7D
:10326000FF1FE856FD4F259134913093420420937F
:10327000410470E0FB01EE58FC4FE491F0E0EE0FEA
:10328000FF1FE856FD4F2591349130934004209361
:103290003F04845D9C4FFC01849180934604645DEF
:1032A0007C4FFB01649160934404609560934304F8
:1032B0008095809345040895860F911DFC0183A19C
:1032C0008F3F19F0642F0C94380C0895EF92FF9201
:1032D0000F931F93CF93DF93EC01142F790161506B
:1032E000673008F03BC0E62FF0E08827E558F64E3F
:1032F0008F4F0C941A3582190B1ABE19B619CD19B5
:10330000D219081A7E0183E2E80EF11C8E01005DDD
:103310001F4FF70181917F018F3F49F061E00E94CB
:10332000660C61E0F701319780810E94380CE0164D
:10333000F10679F740E062E0CE010E945C1941E0BD
:1033400064E0CE010E945C1940E065E0CE010E947D
:103350005C196FA188A50E9429191EA281E0DF9146
:10336000CF911F910F91FF90EF9008958BA160E096
:103370008F3FA1F3CE010E945C19F0CF411103C031
:1033800040E062E0F7CF41E062E0CE010E945C19CC
:103390006FA188A50E942919E1CF642F8EA10E94F8
:1033A0000619DCCF8EA1811115C088EF0E94DB18B1
:1033B000C8E2D0E0111112C088E290E0FC01319720
:1033C000F1F7FC013197F1F7FC013197F1F7019723
:1033D000F1F7C4CF813061F78AEFE8CFF701808140
:1033E000807F0E94DB18F70181917F018295807FA9
:1033F0000E94DB181150CE010197F1F7DBCFF701E6
:1034000064918EA10E940619FFEFEF1AFF0A115076
:103410001111F5CFA3CF4EA3A1CFDB011496ED91EF
:10342000FC9130E020E065E01994DB011496ED9109
:10343000FC9130E020E062E01994DB011496ED91FC
:10344000FC9130E020E063E019949F92AF92BF922C
:10345000CF92DF92EF92FF920F931F93CF93DF9360
:103460007C018B01942E69018AE0481739F195E1BE
:10347000491709F486C0F801C281D381F2E39F168F
:1034800009F429C1F91508F4CBC085E1981609F4AF
:1034900027C197E1991609F433C1A4E19A12EFC04C
:1034A000EE81FF818D818E0F9F2F911D11928E17BE
:1034B0009F07E1F7CE010E94D817E1C0DB01149607
:1034C000ED91FC9130E020E043E061E0C701199507
:1034D00080E091E8A92E92E0B92EF501C491811106
:1034E00010C081E0CF3F49F04C2FB801C7010E94C6
:1034F0000D1A882309F4BFCF80E0BFEFAB1ABB0AD7
:10350000ECCF4FEFCF3F89F3CE3F09F4B4CFC03FAC
:1035100098F7C03E38F04C2F4F70B801C7010E9499
:10352000151AEACFC03D38F04C2F4F70B801C701D3
:103530000E941D1AE1CFC03CF8F0D8011496ED911D
:10354000FC9130E020E040E064E0C7011995C295AD
:10355000C07FCE5FD0E0CE010E94D118D801149672
:10356000ED91FC9130E020E041E064E0C701199565
:10357000CE010E94D118C0CFC7FDBECF8C2F90E0E6
:10358000F8CFFB01A280B38040E0C7010E94151A6A
:1035900041E0B801C7010E941D1AD5011296CC91D5
:1035A00012971696AD90BC90D8E0DC0F40E0B801C1
:1035B000C7010E94151A4EE3B801C7010E940D1AF7
:1035C000C03228F54C2F4068B801C7010E940D1A7F
:1035D00040E8B801C7010E940D1A41E0B801C701D7
:1035E0000E94151AD8011496ED91FC91950140E1C5
:1035F00066E0C7011995B0E1AB0EB11CCF5FCD13EA
:10360000D5CF40E0B801C7010E941D1A34CF40EE6B
:103610004C0F4068B801C7010E940D1A48E8D9CF85
:10362000B6E49B1609F47BC0E7E49E1609F47BC060
:10363000FBE39F1224C0D60111969C91119713961B
:103640008C9138E0390F813031F0833011F0392F0F
:1036500002C0392F985021E04B81491708F420E02F
:1036600041E0391708F040E091E05A81351708F43D
:1036700090E0322F342B932379F4242369F481E0F2
:10368000DF91CF911F910F91FF90EF90DF90CF903E
:10369000BF90AF909F900895F601128100E0F12C49
:1036A000843048F490E0FC01E85BFD4FF0808C5BD7
:1036B0009D4FDC010C9117FF04C0B601CE010E94A2
:1036C000AC17F60180818F0D80838181800F81830B
:1036D000110F89F7D4CFB601CE010E94AC17CFCF1E
:1036E000CE010E94C217882359F2EE81FF818D819D
:1036F0008E0F9F2F911D11928E179F07E1F7BFCF5D
:10370000D6011C928A8111968C9311978D818150DC
:1037100012968C9312978B8113968C93B0CF8D81D8
:10372000F6018083ACCF8981D6018C93A8CF0F930B
:10373000FC010150040F84A996A9941788F008177A
:1037400010F4041778F42150260F83A995A9961731
:1037500058F0281760F481E0261720F40F9108959F
:10376000081778F780E0FACF2817A8F7FBCF81E099
:10377000F5CF8F929F92AF92BF92CF92DF92EF924E
:10378000FF920F931F93CF93DF93A82EC62FB42ED3
:10379000D22F7801242F220F220F220F0D2F462F18
:1037A000682F82E597E00E94971BDC0F8B2C912CF1
:1037B00081112EC0DF91CF911F910F91FF90EF905B
:1037C000DF90CF90BF90AF909F908F900895F801B9
:1037D00084916091540770915507D0926E07C09301
:1037E0006F0710927107809370072EE637E04BE366
:1037F00082E597E00E94DF170F5F1F4FCA94F8E041
:10380000DF0EC110E4CFE80CF91CCF5FDC1791F29A
:10381000CB2CDA2C8701DBCF5F926F927F928F9255
:103820009F92AF92BF92CF92DF92EF92FF920F934F
:103830001F93CF93DF93EC01C62E142FD22EEC8072
:10384000FD80C7010E94B218082F8C819D810E94C3
:10385000B518982EAA24AA94013011F48FE0A82E4E
:103860008C819D810E94AE18082F8C819D810E94C1
:10387000AA18B82E8C819D810E94CB1820E62D15A8
:1038800070F4009761F0E80EF91E01E6BD14C0F473
:10389000188A1B8A1C8A198A1A8A80E05AC08C816D
:1038A0009D810E94CE18E0E4ED1530F4009721F0E0
:1038B000E80EF91E01E4EACFF1E1EF0EF11CE6CFCC
:1038C000B01630F3892D90E0F70124912F3F39F4A1
:1038D000FFEFEF1AFF0AB016D9F20F5FF5CFD01243
:1038E0005FC08C819D810E94B21897012F5F3F4F6E
:1038F000F701882319F0823009F03BC084918B8B4B
:10390000F90124912C8BF7013396E491E88BF701B0
:103910003496E491E98BF7013596E491EA8BE11452
:10392000F10409F4BACF8C819D810E94B518A82EAC
:10393000DB88BC888989C80E1B198A89181B0B2D46
:103940002D2D412F6C2DCE010E94971B811131C06E
:103950008889DF91CF911F910F91FF90EF90DF90B9
:10396000CF90BF90AF909F908F907F906F905F901F
:1039700008958491982F9F7092509A8B82958F70A2
:10398000898BF9012491822F8F708C8B22952F7057
:103990002B8BF7013296E491E295EF70E88BBFCF65
:1039A0003296E491EA21E80FF92FF11DEE0EFF1E89
:1039B00092CFEA0CF11CF7E0DF0ED694D694D694A1
:1039C000012F0B0D4E012CE1820E911C6D2C712CE0
:1039D000101709F4BDCF5C2C570112C0F50184917A
:1039E0006A817B815C8E1D8F1F8E8E8F94014BE3CD
:1039F000CE010E94DF17FFEFAF1ABF0A28E0520E78
:103A00008A2D8E198D1550F3E60CF71C1F5FE0CF41
:103A1000EF92FF920F931F93CF93DF93F82E062F11
:103A2000E42E152FE0916707F091680782E597E093
:103A30001995080FCE2DD12F10E02991211108C022
:103A4000812FDF91CF911F910F91FF90EF900895FB
:103A5000402F6F2D82E597E00E940C1CF80E180F86
:103A6000ECCF83E20E94860B892B71F480912802AF
:103A700090912902019741F410926204109261041E
:103A800010922902109228020895DF92EF92FF927D
:103A90000F931F93CF93DF93EC01D62E1CAD0BAD8C
:103AA0007C0184E0E80EF11CE98DFA8DC7011995BF
:103AB000412F480F2D2D602FC7010E940C1C9BAD7C
:103AC000890F8BAF81E090E0DF91CF911F910F9133
:103AD000FF90EF90DF900895089590E080E00895C2
:103AE0000F931F93CF93DF93EC0180E2689FF00167
:103AF0001124EA59FB4F6A8B80912A0290912B0284
:103B0000A0912C02B0912D028E879F87A88BB98B34
:103B10000489158930E020E09801112700270F8BD8
:103B2000188F298F3A8F828D938DB0E0A0E0AC0181
:103B3000BD01402B512B622B732B4F8B588F698FFC
:103B40007A8F83858871A9F4848D958DA68DB78D24
:103B50008B8B9C8BAD8BBE8B81E08D8381E08C83C6
:103B60001E821F82188619861A861B861C861D8651
:103B700003C0803131F080E0DF91CF911F910F9130
:103B800008959E012D5E3F4F8B8D9C8D0E942D11BF
:103B9000882389F384E0E1CFFB0101900020E9F75D
:103BA0003197AF01461B570BDC01ED91FC91028070
:103BB000F381E02D19948F929F92AF92BF92EF9272
:103BC000FF920F931F93CF93DF93CDB7DEB7A197EB
:103BD0000FB6F894DEBF0FBECDBF7C01FA01CB015A
:103BE00019A2223008F42AE08E010F5D1F4F822EA9
:103BF000912CB12CA12CBF01A50194010E94D934B4
:103C0000F901CA016A300CF5605DD8016E938D012F
:103C1000232B242B252B79F790E080E0109721F0BF
:103C2000BD01C7010E94CC1DA1960FB6F894DEBF5E
:103C30000FBECDBFDF91CF911F910F91FF90EF90FD
:103C4000BF90AF909F908F900895695CDECFCF9327
:103C5000DF93BC0186E696E00E94CC1DEC016CE986
:103C600072E086E696E00E94CC1D8C0F9D1FDF91CE
:103C7000CF9108952F923F924F925F926F927F92D1
:103C80008F929F92AF92BF92CF92DF92EF92FF926C
:103C90001F93CF93DF93EC016A017B01722EAB017E
:103CA0009601CB01B6010E949F346FE972E0811149
:103CB00026C046015701E894B7F82FEF3FEF4FE7D2
:103CC0005FE7C501B4010E949F3481110CC02FEF42
:103CD0003FEF4FE75FE7C501B4010E94F43163EAAB
:103CE00072E0181664F02FEF3FEF4FE75FE4C70173
:103CF000B6010E944A341816B4F467EA72E0CE01A5
:103D0000DF91CF911F91FF90EF90DF90CF90BF9008
:103D1000AF909F908F907F906F905F904F903F906B
:103D20002F900C94CC1D2FEF3FEF4FE75FECC701B6
:103D3000B6010E94F43187FDE0CF20E030E0A90118
:103D4000C701B6010E94F431312C212C87FF09C034
:103D50006DE2CE010E94E4091C01F7FAF094F7F835
:103D6000F09410E060E070E080E09FE3711641F0B5
:103D700020E030E040E251E40E94A2331F5FF6CF22
:103D8000A70196010E9436332B013C010E941B348F
:103D90004B015C012AE0BC01A401CE010E94DB1DA5
:103DA0007C01E20CF31C1123C1F1C501B4010E9496
:103DB000F9319B01AC01C301B2010E9435334B01C3
:103DC0005C016EE2CE010E94E409E80EF91E11507A
:103DD00020F120E030E040E251E4C501B4010E944E
:103DE0005A322B013C010E941B344B01B12CA12CF7
:103DF0002AE0B501A401CE010E94DB1DE80EF91EE8
:103E0000C501B4010E94F9319B01AC01C301B201AB
:103E10000E9435334B015C01DACFC701DF91CF91AE
:103E20001F91FF90EF90DF90CF90BF90AF909F9049
:103E30008F907F906F905F904F903F902F9008955C
:103E40008F929F92AF92BF92CF92DF92EF92FF92AA
:103E50000F931F93CF93DF9308ED13E020E74EE01D
:103E60006BE188E00E94B91B8DE69CE00E949B09F3
:103E70006091240270912502809126029091270280
:103E800022E0822E912CA12CB12CA50194010E943C
:103E9000FB34CA01B9016F5F7F4F8F4F9F4F35E0F1
:103EA000C32ED12CE12CF12CA70196010E94FB34EA
:103EB000660F771F665C7D4FFB014081518164E294
:103EC00087E20E94081D81EF95E00E949B096091A6
:103ED0002402709125028091260290912702A5016B
:103EE00094010E94FB34CA01B9016E5F7F4F8F4F6E
:103EF0009F4FA70196010E94FB34660F771F665CF7
:103F00007D4FFB01408151816CE282E00E94081DDF
:103F100060912402709125028091260290912702DF
:103F2000A50194010E94FB34CA01B901A7019601C1
:103F30000E94FB34660F771F665C7D4FFB0140815A
:103F400051816CE28CE50E94081D81EF95E00E9492
:103F50009B094BEA52E06AE083E00E94081DCEE430
:103F6000D7E083E08BAF14E11CAF40912002509169
:103F70002102609122027091230220E0CE010E9472
:103F80003A1E47EB52E06AE08AE50E94081D8AE586
:103F90008BAF1CAF40911C0250911D0260911E021C
:103FA00070911F0220E0CE010E943A1E81EF95E041
:103FB0000E949B0942EC52E06AE082E30E94081DE5
:103FC00082E38BAF1CAFE7EAF7E044815581608163
:103FD0007181CE01DF91CF911F910F91FF90EF90F2
:103FE000DF90CF90BF90AF909F908F900C94EB0993
:103FF000AF92BF92CF92DF92EF92FF920F931F93F7
:10400000CF93DF9300D000D000D01F921F92CDB786
:10401000DEB76C01FE013196CE010C967F0120E2E5
:104020002193E817F907E1F7DA0120E037E09D91E5
:10403000B92E9923A9F19E32B9F43A3091F480E077
:104040002B960FB6F894DEBF0FBECDBFDF91CF9198
:104050001F910F91FF90EF90DF90CF90BF90AF90A6
:10406000089528E03AE0E3CFE1EEF5E0849188237B
:1040700021F031969813FACFE2CF321700F38FED8B
:10408000890F8E35E0F68FE9890F8A3118F440EEFA
:10409000B42EB90EF701E20FF11DB0822F5FC7CF2A
:1040A0008981803261F28B01FB01838D948DF60151
:1040B000948F838FFB0116821782108611861286D9
:1040C000138614861586F80182859385A485B585A7
:1040D000438954896589768984179507A607B707A8
:1040E00008F0ADCF25E0B695A795979587952A95C9
:1040F000D1F7F82FFF70AF2EF8018581823008F4D8
:104100009ECFC8010E94131797FD99CFF8018285B1
:104110009385A485B5854F96A11DB11D8287938790
:10412000A487B587F0E2AF9EB00111246A597B4F96
:104130006115710509F483CFFB018081882309F1A2
:10414000853E19F4B11032C01EC04BE050E0C701EB
:104150000E942D37892B09F0B6CF6A2DC6012B9608
:104160000FB6F894DEBF0FBECDBFDF91CF911F9188
:104170000F91FF90EF90DF90CF90BF90AF900C9495
:10418000701DB1105CCFF601A28A80912A02909135
:104190002B02A0912C02B0912D0286879787A08BCD
:1041A000B18BFB018081882309F449CFBB24B394F0
:1041B0008ACF1F93CF93DF93182FCB01C5E0D0E0B8
:1041C000FC012081211306C00196DF91CF911F9140
:1041D0000C94713060E270E00E94433701962197A1
:1041E00079F760E070E080E89FEBDF91CF911F915D
:1041F00008950E9428370F931F93CF93DF93EC010C
:1042000088819981009759F02A813B8126173707C9
:1042100030F081E0DF91CF911F910F9108958B01D4
:104220006F5F7F4F0E944736009759F099838883CC
:104230001B830A832C813D81232B59F7FC011082BB
:10424000E8CF80E0E7CFEF92FF920F931F93CF93D9
:10425000DF93EC017B018A01BA010E94FB202881D7
:104260003981811114C02115310519F0C9010E944D
:10427000BE35198218821D821C821B821A82CE01D1
:10428000DF91CF911F910F91FF90EF9008951D83C3
:104290000C83B701C9010E944E37F1CFEF92FF9214
:1042A0000F931F93CF93DF93EC017B018A011B8255
:1042B0001A8288EE93E0A0E0B0E08C839D83AE8309
:1042C000BF838EE892E0998388838DE190E00E941D
:1042D00022359A8F898F009779F02DE1F701DC0163
:1042E00001900D922A95E1F74CE050E0B801CE0123
:1042F0000C960E945537188EDF91CF911F910F9128
:10430000FF90EF9008952F923F924F925F926F929D
:104310007F928F929F92AF92BF92CF92DF92EF9255
:10432000FF920F931F93CF93DF93CDB7DEB7C6569F
:10433000D1090FB6F894DEBF0FBECDBF6C015B0193
:1043400019A218A286E792E09F8F8E8F1BA21C8273
:104350001B829A8389831E824E018EE1880E911CF6
:10436000C4010E94981175018E010F5F1F4F240137
:1043700018016FE270E0C7010E944337009709F40B
:104380005CC0F70120812F3271F4FFEFEF1AFF0AB2
:10439000902F812F8201492E582E942D852D280192
:1043A000092F182FE6CF8E198D3008F08CE0682E7B
:1043B000712CA301B701CE01885A9F4F0E94553737
:1043C000E8E5F0E0EC0FFD1FE60DF71D1082C801D7
:1043D0000E94BC14F8018581882301F11EAE1DAE38
:1043E00086E792E09CAF8BAF21961FAE2197A796F0
:1043F000EEADFFADA797AE0EBF1EF5018081811116
:1044000029C0BE01655C7F4FC1010E94681648EC5F
:1044100052E0B101C6010E944E213AC0AE01485A95
:104420005F4FB201C8010E94F81F8823B9F2E60C61
:10443000F71CC2010E94BC14B0CFC7018A199B09A6
:10444000A7969FAF8EAFA797B201CE01CB960E94E1
:104450006816CDCF19A218A286E792E09F8F8E8FA3
:104460001BA221968FAD219781112DC0F6011382D9
:10447000128288EE93E0A0E0B0E084839583A68367
:10448000B7838EE892E091838083128E118E14861A
:10449000C601CA59DF4F0FB6F894DEBF0FBECDBFBD
:1044A000DF91CF911F910F91FF90EF90DF90CF9010
:1044B000BF90AF909F908F907F906F905F904F9044
:1044C0003F902F900895A501BE01655C7F4FC40108
:1044D0000E94F81F882351F2CE01CB960E94BC1493
:1044E000B401C1010E946816A50193CF2F923F929B
:1044F0004F925F926F927F928F929F92AF92BF92F4
:10450000CF92DF92EF92FF920F931F93CF93DF939F
:10451000CDB7DEB7C258D1090FB6F894DEBF0FBED3
:10452000CDBF1C0198EE492E93E0592E612C712CC1
:104530000EE812E02BE5E22EF12CEC0EFD1E8CE0D5
:10454000E80EF11C4B019FEF891A990A80913604FD
:104550009091370401969093370480933604D101EB
:104560005996CD90DC90F6018581823008F406C121
:1045700082859385A485B5858F719927AA27BB2746
:10458000892B8A2B8B2B09F0F9C040E250E0BE0149
:104590006F5F7F4FC6010E947A13803209F0EEC030
:1045A0008981882309F4EAC0853E79F38E3269F364
:1045B0008C8583FDEACF22961FAE1EAE229786E73A
:1045C00092E09FAF8EAF24961FAE2497BE016F5F1F
:1045D0007F4FE0E080E04EE2DB019D91BD01903233
:1045E000A1F0883049F426E730E02C0F3D1F2E0F54
:1045F000311DD9014C93EF5F26E730E02C0F3D1FB2
:104600002E0F311DD9019C93EF5F8F5F8B3021F707
:1046100086E790E08C0F9D1F8E0F911DFC0110828C
:10462000D10159966D917C91AE014A585F4FCE01F0
:10463000CE960E94F81F882309F4A0C0BE01625CD8
:104640007F4FCE0181960E946816AE014A585F4F97
:10465000BE016F5D7F4FCE01855A9F4F0E944E2154
:10466000E696EEADFFADE697309709F4BCC08581C4
:10467000882309F4B8C069E086E696E00E94E40960
:10468000A0903604B09037040B2C000CCC08DD0849
:104690002AE0B601A501D7FE0DC06DE286E696E0E0
:1046A0000E94E40944275527BA014A195B096C099D
:1046B0007D092AE086E696E00E94DB1DE091360443
:1046C000F0913704EE0FFF1FE45BFD4FB7018081CF
:1046D00091810E944E37B70186E696E00E94CC1D7C
:1046E000E696EEADFFADE697309709F45DC08581A3
:1046F000823008F459C088EC92E00E94271E6F9621
:104700008EAD9FAD6F979C838B83A3968CAD9DAD33
:10471000AEADBFADA3978D839E83AF83B887A796B9
:104720008CAD9DADAEADBFADA79789879A87AB879E
:10473000BC871A8309838DE0F701DE011D96019085
:104740000D928A95E1F7E6968EAD9FADE6979B8F29
:104750008A8FB401CE0101960E947622E6968EAD34
:104760009FADE697009709F4F1CE0E94BC14E6963F
:104770008EAD9FADE6970E94BE35E8CE6F961FAE18
:104780001EAE6F97A3964CAE5DAE6EAE7FAEA39796
:104790006D961FAF0EAF6D97E6961FAE1EAEE697F5
:1047A000A8961FAEA8975CCF6AEC72E086E696E00A
:1047B0000E94CC1DE696EEADFFADE69740E050E0DE
:1047C000BA01309721F043895489658976892AE0B6
:1047D00086E696E00E94DB1D6CE972E086E696E0D4
:1047E0000E94CC1DBBCFCE57DF4F0FB6F894DEBF73
:1047F0000FBECDBFDF91CF911F910F91FF90EF9032
:10480000DF90CF90BF90AF909F908F907F906F90F0
:104810005F904F903F902F9008954F925F926F92CC
:104820007F928F929F92AF92BF92CF92DF92EF9240
:10483000FF92CF93DF9300D000D0CDB7DEB7809149
:104840007B00886080937B0085E480937C0080916E
:104850007A00806480937A0080917A0086FDFCCF94
:104860008091780060917900762F682F072E000CD8
:10487000880B990B0E94FB319B01AC0160E070EC4E
:104880008FE794E40E94A23320E030E040E85FE349
:104890000E9435339B01AC0160E070EE82E995E443
:1048A0000E94A2330E9457346B017C0122E43EEB4C
:1048B0004BE154E30E945A32A70196010E945A32FA
:1048C000A70196010E945A324B015C012DEA32ED9C
:1048D00042E559E3C701B6010E945A322DE330E4A4
:1048E00040E55AE30E9436339B01AC01C501B40197
:1048F0000E9436339B01AC0160E070E080E89FE3EA
:104900000E94A23323E333E948E853E40E9435339D
:104910006B017C01C0925704D0925804E092590474
:10492000F0925A0461E089E00E94380C80911C02E8
:1049300090911D02A0911E02B0911F0289839A835B
:10494000AB83BC83A7019601BC01CD010E94353326
:104950002B013C0120E030E040EF51E40E945A324C
:104960004B015C012AE037ED43EA5BE3C301B2018E
:104970000E945A32209138043091390440913A040F
:1049800050913B040E9436332B013C0120E030E083
:10499000A9010E94F43187FD66C04092380450920C
:1049A000390460923A0470923B0420E030E048EC15
:1049B00052E4609138047091390480913A049091E6
:1049C0003B040E944A34181664F480E090E0A8EC9E
:1049D000B2E48093380490933904A0933A04B093DE
:1049E0003B0420E030E0A901C501B4010E94F4318C
:1049F00087FF03C0812C912C540129813A814B817E
:104A00005C81C701B6010E9435332B013C0120E0D7
:104A100030E0A9010E944A34181674F520E030E015
:104A200040EA50E4C301B2010E94F43187FF2EC076
:104A3000209138043091390440913A0450913B045C
:104A4000C501B4010E9436330E9414346B017E8389
:104A50006D8361E08AE00E94660CAD81BE81AB2B64
:104A600001F560E047C110923804109239041092A9
:104A70003A0410923B0499CF20E030E040EA50EC39
:104A8000C301B2010E944A34181694F229813A8176
:104A90004B815C81C701B6010E94F43187FFE1CFF1
:104AA00028C18D819E818F3F91050CF465C061E026
:104AB0008AE00E94380CAFEFB0E0BE83AD83409136
:104AC0005704509158046091590470915A0422E09F
:104AD00086E696E00E943A1E6CE972E086E696E071
:104AE0000E94CC1D409138045091390460913A04E1
:104AF00070913B0422E086E696E00E943A1E6CE943
:104B000072E086E696E00E94CC1DAD81BE816D010B
:104B10000B2E000CEE08FF082AE0B701A601B7FF34
:104B20000DC06DE286E696E00E94E4094427552711
:104B3000BA014C195D096E097F092AE086E696E004
:104B40000E94DB1D6CE972E086E696E026960FB6C1
:104B5000F894DEBF0FBECDBFDF91CF91FF90EF90F5
:104B6000DF90CF90BF90AF909F908F907F906F908D
:104B70005F904F900C94CC1DE6EDF2E0E491E15093
:104B8000E23108F0B0C0F0E08827E653FA4D8F4FCD
:104B90000C941A35DC25E125E625F025FA25732647
:104BA00004260C2614261E262826322641264B26AD
:104BB000732655265F26692684B5806884BDC7BCE8
:104BC0007ECF84B5806284BDC8BC79CF80918000DF
:104BD000806880938000D0928900C09288006FCF57
:104BE00080918000806280938000D0928B00C09280
:104BF0008A0065CF80918000886080938000D09289
:104C00008D00C0928C005BCF8091B0008068809353
:104C1000B000C092B30053CF8091B0008062809307
:104C2000B000C092B4004BCF809190008068809318
:104C30009000D0929900C092980041CF809190004E
:104C4000806280939000D0929B00C0929A0037CFF0
:104C500080919000886080939000D0929D00C092D7
:104C60009C002DCF8091A00080688093A00080914F
:104C7000A0008F7B8093A000D092A900C092A800D2
:104C80001ECF8091A00080628093A000D092AB00E4
:104C9000C092AA0014CF8091A00088608093A000E9
:104CA000D092AD00C092AC000ACF80912001806804
:104CB00080932001D0922901C092280100CF8091D9
:104CC0002001806280932001D0922B01C0922A01A2
:104CD000F6CE80912001886080932001D0922D0132
:104CE000C0922C01ECCE8D819E81803891050CF410
:104CF000B8CE61E08AE00E94380CE1CE1F920F929C
:104D00000FB60F9211240BB60F922F933F934F9330
:104D10005F936F937F938F939F93AF93BF93EF9323
:104D2000FF9386E696E00E945F0AFF91EF91BF91A4
:104D3000AF919F918F917F916F915F914F913F9133
:104D40002F910F900BBE0F900FBE0F901F901895D4
:104D50001F920F920FB60F9211240BB60F922F9342
:104D60008F939F93EF93FF93E0917606F0917706F0
:104D70008081E0917C06F0917D0682FD1DC09081CE
:104D800080917F068F5F8F7320918006821741F09C
:104D9000E0917F06F0E0EA59F94F958F80937F0606
:104DA000FF91EF919F918F912F910F900BBE0F90DC
:104DB0000FBE0F901F9018958081F2CF1F920F9217
:104DC0000FB60F9211242F933F938F939F93AF931E
:104DD000BF938091520490915304A0915404B091D8
:104DE00055043091510423E0230F2D3758F50196D7
:104DF000A11DB11D2093510480935204909353043C
:104E0000A0935404B093550480914D0490914E04A6
:104E1000A0914F04B09150040196A11DB11D809343
:104E20004D0490934E04A0934F04B0935004BF914F
:104E3000AF919F918F913F912F910F900FBE0F9047
:104E40001F90189526E8230F0296A11DB11DD2CF01
:104E50001F920F920FB60F9211240BB60F922F9341
:104E60003F934F935F936F937F938F939F93AF93F2
:104E7000BF93EF93FF93E0911602F09117021995FB
:104E8000FF91EF91BF91AF919F918F917F916F9122
:104E90005F914F913F912F910F900BBE0F900FBEDE
:104EA0000F901F9018951F920F920FB60F9211241A
:104EB0000BB60F922F933F934F935F936F937F9314
:104EC0008F939F93AF93BF93EF93FF93E09114025F
:104ED000F09115021995FF91EF91BF91AF919F91BC
:104EE0008F917F916F915F914F913F912F910F9093
:104EF0000BBE0F900FBE0F901F9018951F920F9230
:104F00000FB60F9211240BB60F922F933F934F932E
:104F10005F936F937F938F939F93AF93BF93EF9321
:104F2000FF93E0910A02F0910B021995FF91EF9126
:104F3000BF91AF919F918F917F916F915F914F91B1
:104F40003F912F910F900BBE0F900FBE0F901F90AF
:104F500018951F920F920FB60F9211240BB60F9255
:104F60002F933F934F935F936F937F938F939F9371
:104F7000AF93BF93EF93FF93E0910802F091090282
:104F80001995FF91EF91BF91AF919F918F917F9173
:104F90006F915F914F913F912F910F900BBE0F90AA
:104FA0000FBE0F901F9018951F920F920FB60F9281
:104FB00011240BB60F922F933F934F935F936F93F0
:104FC0007F938F939F93AF93BF93EF93FF93E09162
:104FD0001202F09113021995FF91EF91BF91AF91D9
:104FE0009F918F917F916F915F914F913F912F9101
:104FF0000F900BBE0F900FBE0F901F9018951F9231
:105000000F920FB60F9211240BB60F922F933F936E
:105010004F935F936F937F938F939F93AF93BF93C0
:10502000EF93FF93E0911002F09111021995FF9117
:10503000EF91BF91AF919F918F917F916F915F9110
:105040004F913F912F910F900BBE0F900FBE0F907D
:105050001F9018951F920F920FB60F9211240BB646
:105060000F922F933F934F935F936F937F938F9301
:105070009F93AF93BF93EF93FF93E0910E02F09154
:105080000F021995FF91EF91BF91AF919F918F9171
:105090007F916F915F914F913F912F910F900BBE38
:1050A0000F900FBE0F901F9018951F920F920FB682
:1050B0000F9211240BB60F922F933F934F935F9350
:1050C0006F937F938F939F93AF93BF93EF93FF93D0
:1050D000E0910C02F0910D021995FF91EF91BF91B3
:1050E000AF919F918F917F916F915F914F913F9180
:1050F0002F910F900BBE0F900FBE0F901F90189521
:10510000CF92DF92EF92FF9210926906109268069A
:1051100088EEC82E83E0D82EE12CF12CC0926A06CE
:10512000D0926B06E0926C06F0926D0684E692E0F7
:10513000909367068093660685EC90E090937306E3
:105140008093720684EC90E09093750680937406C9
:1051500080EC90E0909377068093760681EC90E067
:10516000909379068093780682EC90E090937B068A
:1051700080937A0686EC90E090937D0680937C067F
:1051800010927F061092800610928106109282067D
:1051900080E5809303071092040710920A0710928B
:1051A0000B0710920E071092100782E090E0A0E02B
:1051B000B0E08093110790931207A0931307B09368
:1051C000140710922807109232071092310786E7D1
:1051D00092E09093300780932F071092340710923B
:1051E000A8071092A7071092AA071092A907109279
:1051F000AC071092AB0745E050E06DEC72E087EA37
:1052000097E00E94232110928F0710928E07C09280
:105210009007D0929107E0929207F09293078EE860
:1052200092E090938D0780938C071092A6071092BE
:10523000A50710929807109251071092500782E824
:1052400092E090934F0780934E0710928907109237
:105250008A0710928B0710925707109256071092E8
:1052600059071092580710925B0781E080935A0704
:1052700082E280935C071092610710926007E5E775
:10528000F7E023E837E08FEF81932E173F07E1F730
:1052900091E09093720729E939E0309368072093F1
:1052A00067079093690710926A0710926B0790E462
:1052B00090936C0710926D0728E939E030938407CA
:1052C000209383072EE232E0309355072093540752
:1052D00097E19093790791E190937A0790E1909309
:1052E000770780937607809375070E94E31782E81B
:1052F00092E090934F0780934E07FF90EF90DF90DE
:10530000CF900895CF93DF93CDB7DEB7A9970FB6AF
:10531000F894DEBF0FBECDBF789484B5826084BDA3
:1053200084B5816084BD85B5826085BD85B58160A9
:1053300085BD80916E00816080936E001092810027
:1053400080918100826080938100809181008160E2
:1053500080938100809180008160809380008091A3
:10536000B10084608093B1008091B000816080932F
:10537000B0008091910082608093910080919100B3
:105380008160809391008091900081608093900073
:105390008091A10082608093A1008091A100816032
:1053A0008093A1008091A00081608093A0008091F3
:1053B000210182608093210180912101816080938D
:1053C00021018091200181608093200180917A00E9
:1053D000846080937A0080917A00826080937A0062
:1053E00080917A00816080937A0080917A00806851
:1053F00080937A001092C100E0917606F0917706D2
:1054000082E08083E0917206F09173061082E09151
:105410007406F09175068FEC808310927E06E09101
:105420007A06F0917B0686E08083E0917806F09121
:105430007906808180618083E0917806F091790619
:10544000808188608083E0917806F0917906808180
:1054500080688083E0917806F091790680818F7D65
:10546000808380915D07883209F0A6C18FEF809319
:105470007207109262041092610460E08FE10E9452
:10548000660C60E081E20E94660C60E083E20E94AC
:10549000660C61E08FE10E94380C61E081E20E94BD
:1054A000380C61E083E20E94380C2FEA3BE0309335
:1054B00009022093080280916A008C7F81608093AA
:1054C0006A00EC9A30930B0220930A0280916A00E2
:1054D000837F846080936A00ED9A809134078823EB
:1054E00021F08FE297E00E94BC14109210071092F6
:1054F0000E0710920B0710920A0785E380930907A5
:105500000E94970C8B0161E0809109070E94660C54
:1055100061E0809109070E94380CFFB6F8948091F1
:105520005604811127C0E7EAF3E08491E1E6F3E055
:105530009491E82FF0E0EE0FFF1FEE5EFC4FA59177
:10554000B491EC91E92321F461E085E30E94380CE9
:1055500061E085E30E94660C8CB580618CBD8CB5E2
:1055600080648CBD61E084E30E94660C61E083E3AB
:105570000E94660C809156048F5F80935604FFBE94
:1055800082E58093030710920407809103079091AE
:1055900004070E94DA0CFAE0FF2E8FEF0E94B50C90
:1055A000FA94F110FACF85E097E00E94DD0C20E03C
:1055B00030E0A90160E085E097E00E94F30CF82E4E
:1055C00080930F0721E0821709F406C10E94970C0F
:1055D000601B710B613D774050F381E080930A07B7
:1055E00085E097E00E94AA0C68EC72E0FE0131961B
:1055F0007F01CF010E9483218B819C8190938F0733
:1056000080938E078D819E81AF81B88580939007AE
:1056100090939107A0939207B093930789859A85F9
:10562000AB85BC858093940790939507A0939607CC
:10563000B0939707DE011D96E8E9F7E08D9181931D
:1056400027E0E53AF207D1F78A8D9B8D9093A60764
:105650008093A50720918E0730918F073C832B8381
:105660004091900750919107609192077091930734
:105670004D835E836F83788740919407509195079F
:10568000609196077091970749875A876B877C8747
:105690002EE832E03A8329832DE0E8E9F7E0DE01E5
:1056A0001D9601900D922A95E1F79B8F8A8F70E0ED
:1056B00060E0C7010E94762252E0852E912CA12C39
:1056C000B12C64E0462E512C612C712C80918B07FB
:1056D000811105C081E080938B070E94E3178091C0
:1056E0005407909155070E94491845EE242E42E038
:1056F000342E83E20E94860B8130910551F4209173
:10570000280230912902232B21F4909329028093BF
:1057100028020E94AF0B8091240290912502A09153
:105720002602B0912702609154077091550780932B
:105730006E0731E030936F072EE637E042E382E5F3
:1057400097E00E94DF1700ED13E028E041E068E3F6
:1057500080E00E94B91B08EC13E028E041E068E318
:1057600088E70E94B91B00EC13E028E041E060E00C
:1057700080E00E94B91B08EB13E028E041E060E004
:1057800088E70E94B91B0E940D24809161049091CA
:1057900062048230910509F490C10CF09BC000971F
:1057A00009F4DBC0019709F40AC10E947018811145
:1057B000A0CF0E94EE0A8ACF823011F483E057CE48
:1057C000813009F454CE803309F053CE8FEF8093AB
:1057D0007207809373074DCE2AEA31E040E050E033
:1057E00068E085E097E00E94F30C82FF2AC0F09207
:1057F000100780911007C12CD12C7601823029F43A
:10580000C12CD12CE12C70E4F72E20E030E0A9016E
:1058100067E385E097E00E94F30CA701960169E237
:1058200085E097E00E94F30C80930F078823D1F066
:105830000E94970C601B710B613D774030F388E04C
:10584000CDCEE4E0FE2E0E94BC0C80930F07FA94AC
:10585000F110F9CF8A3A11F082E0C0CE82E0809355
:105860001007C7CF809110078230D1F420E030E0DC
:10587000A9016AE385E097E00E94F30C882311F008
:1058800086E0ACCE0E94BC0C807C803C19F483E0A6
:10589000809310070E94BC0C0E94BC0C0E94BC0CA0
:1058A00085E097E00E94AA0C80E5809303071092A0
:1058B000040781E00E94E10E882329F08FE297E03F
:1058C0000E94981191CE80E00E94E10E882309F495
:1058D0008BCEF4CF8430910509F4B9C10CF46BC1BF
:1058E000059709F062CF1092600410925F046091F6
:1058F000A7077091A807C7010E948321C7010E94D2
:10590000C016892B09F451CF0E940D2480918B077A
:10591000811105C0F1E0F0938B070E94E31780919D
:105920005407909155070E9449180E94201F0E9419
:1059300070188111FACF83E20E94860B892B09F03F
:105940004DC28091280290912902019709F046C228
:1059500010926204109261042DC00E94201F83E205
:105960000E94860B892B09F020CF8091280290910C
:105970002902019709F019CF609124027091250244
:105980008091260290912702A50194010E94FB3488
:10599000CA01B9016F5F7F4F8F4F9F4F25E030E005
:1059A00040E050E00E94FB346F5F7F4F70936204D1
:1059B000609361041092290210922802F6CE08ED3D
:1059C00013E020E74EE06BE188E00E94B91B8DE612
:1059D0009CE00E949B0943ED52E060E186E10E9459
:1059E000081D8091240290912502A0912602B09179
:1059F0002702BF93AF939F938F933F922F92FF9273
:105A0000EF920E946437A70164E287E20E94081DBA
:105A100081EF95E00E949B098091240290912502DC
:105A2000A0912602B09127020196A11DB11DBF933E
:105A3000AF939F938F933F922F92FF92EF920E948A
:105A40006437A7016CE286E00E94081D8091240261
:105A500090912502A0912602B09127020197A109F9
:105A6000B109BF93AF939F938F933F922F92FF9271
:105A7000EF920E946437A7016CE28EE60E94081D37
:105A80006091240270912502809126029091270254
:105A90000E94FB31609320027093210280932202C6
:105AA000909323020E94311D8DB79EB748960FB682
:105AB000F8949EBF0FBE8DBF78CE08ED13E020E7AF
:105AC0004EE06BE188E00E94B91B8DE69CE00E94ED
:105AD0009B0948EE52E060E188E00E94081D809139
